:020000040800F2
:10000000880600202902000865020008670200082F
:10001000690200086B0200086D0200080000000081
:100020000000000000000000000000006F02000857
:100030007102000800000000730200087502000849
:1000400077020008770200087702000877020008AC
:10005000770200087702000877020008770200089C
:10006000770200087702000877020008770200088C
:10007000770200087702000877020008770200087C
:10008000770200087702000877020008770200086C
:10009000770200087702000877020008770200085C
:1000A000770200087702000877020008770200084C
:1000B000770200087702000877020008770200083C
:1000C000770200087702000877020008770200082C
:1000D000770200087702000877020008770200081C
:1000E000770200087702000877020008770200080C
:1000F00077020008770200087702000877020008FC
:1001000077020008770200087702000877020008EB
:1001100077020008770200087702000877020008DB
:1001200077020008770200087702000877020008CB
:1001300077020008770200087702000877020008BB
:1001400077020008770200087702000877020008AB
:10015000770200087702000877020008770200089B
:10016000770200087702000877020008770200088B
:1001700077020008770200087702000800000000FC
:10018000770200087702000800F002F800F03CF85F
:100190000AA090E8000C82448344AAF10107DA45E2
:1001A00001D100F031F8AFF2090EBAE80F0013F0F8
:1001B000010F18BFFB1A43F001031847F4020000B7
:1001C00014030000103A24BF78C878C1FAD8520747
:1001D00024BF30C830C144BF04680C6070470000C1
:1001E0000023002400250026103A28BF78C1FBD840
:1001F000520728BF30C148BF0B6070471FB500F0E1
:1002000051F91FBD10B510BD00F053F81146FFF7AE
:10021000F5FF00F021F900F071F803B4FFF7F2FFE9
:1002200003BC00F079F8000016481749174B9942B3
:100230003CBF50F8042B41F8042BF8D314494FF07D
:1002400000028B4238BF43F8042BFAD3DFF8440096
:10025000016841F470010160BFF34F8FBFF36F8FEE
:100260000D480047FEE7FEE7FEE7FEE7FEE7FEE794
:10027000FEE7FEE7FEE7FEE708480949094A0A4BA0
:1002800070470000D0040008000000202400002077
:100290008806002088ED00E0890100088800002021
:1002A00088060020880200208802002070477047DE
:1002B0007047754600F02CF8AE4605006946534677
:1002C00020F00700854618B020B5FFF7D5FFBDE840
:1002D00020404FF000064FF000074FF000084FF0AD
:1002E000000B21F00701AC46ACE8C009ACE8C0093E
:1002F000ACE8C009ACE8C0098D46704710B50446AB
:10030000AFF300802046BDE81040FFF786BF000035
:10031000004870472400002001491820ABBEFEE7CA
:1003200026000200704700001748006820F4705053
:10033000154908600846006840F4205008601248DB
:100340002030006840F0EE600F49203108600E4810
:100350000830006840F470500B4908310860081FED
:10036000006820F02000091F08600846006840F07F
:100370004000086004480C30006820F470500249C6
:100380000C31086070470000000C00480548C06C44
:1003900040F008000349C8640846806D40F400300E
:1003A00088657047001002401448006840F0010062
:1003B000124908600846806820F00300886000BF8A
:1003C0000E48006800F002000028F9D00B480068D1
:1003D00020F0F000094908600846006840F070000D
:1003E00008600846006840F00800086000BF034845
:1003F000006800F002000028F9D0704700100240A9
:10040000016821F010210160016821F400410160C0
:10041000416821F44051416040F24131C1600168BE
:1004200041F001010160016841F00C010160704779
:10043000014600BFC86900F020000028FAD0888C6F
:10044000C0B2704700BFC26902F08002002AFAD031
:10045000CAB2028570470000FFF7A6FFFFF796FFBC
:10046000FFF762FF0C48FFF7CBFF14E00A48FFF7E5
:10047000DFFF0A490A4A127888540846084A127867
:10048000815C0548FFF7DEFF05480078202802D18F
:10049000002003490870E9E7004400400000002004
:1004A000200000204FF04070E1EE100A704700007D
:1004B000D00400080000002024000000C40100084F
:1004C000F40400082400002064060000E001000895
:1004D000FF0000000000000000000000000000001D
:1004E000000000000000000000000000000000000C
:0404F0000000000008
:040000050800018965
:00000001FF
