:020000040800F2
:100000007015002029020008650200086702000838
:10001000690200086B0200086D0200080000000081
:100020000000000000000000000000006F02000857
:100030007102000800000000730200087505000846
:1000400077020008770200087702000877020008AC
:1000500077020008770200084503000871030008D2
:100060009D03000877020008770200087702000865
:10007000770200087702000877020008770200087C
:10008000770200087702000877020008770200086C
:10009000770200087702000877020008770200085C
:1000A000770200087702000877020008770200084C
:1000B000770200087702000877020008770200083C
:1000C000770200087702000877020008770200082C
:1000D000770200087702000877020008770200081C
:1000E000770200087702000877020008770200080C
:1000F00077020008770200087702000877020008FC
:1001000077020008770200087702000877020008EB
:1001100077020008770200087702000877020008DB
:1001200077020008770200087702000877020008CB
:1001300077020008770200087702000877020008BB
:1001400077020008770200087702000877020008AB
:10015000770200087702000877020008770200089B
:10016000770200087702000877020008770200088B
:1001700077020008770200087702000800000000FC
:10018000770200087702000800F002F800F03CF85F
:100190000AA090E8000C82448344AAF10107DA45E2
:1001A00001D100F031F8AFF2090EBAE80F0013F0F8
:1001B000010F18BFFB1A43F001031847A404000005
:1001C000C4040000103A24BF78C878C1FAD8520796
:1001D00024BF30C830C144BF04680C6070470000C1
:1001E0000023002400250026103A28BF78C1FBD840
:1001F000520728BF30C148BF0B6070471FB500F0E1
:1002000029FA1FBD10B510BD00F053F81146FFF7D5
:10021000F5FF00F0FFF900F071F803B4FFF7F2FF0B
:1002200003BC00F079F8000016481749174B9942B3
:100230003CBF50F8042B41F8042BF8D314494FF07D
:1002400000028B4238BF43F8042BFAD3DFF8440096
:10025000016841F470010160BFF34F8FBFF36F8FEE
:100260000D480047FEE7FEE7FEE7FEE7FEE7FEE794
:10027000FEE7FEE7FEE7FEE708480949094A0A4BA0
:100280007047000080060008000000200C000020DD
:100290007015002088ED00E0890100087000002042
:1002A0007015002070050020700500207047704711
:1002B0007047754600F02CF8AE4605006946534677
:1002C00020F00700854618B020B5FFF7D5FFBDE840
:1002D00020404FF000064FF000074FF000084FF0AD
:1002E000000B21F00701AC46ACE8C009ACE8C0093E
:1002F000ACE8C009ACE8C0098D46704710B50446AB
:10030000AFF300802046BDE81040FFF786BF000035
:10031000004870470C00002001491820ABBEFEE7E2
:100320002600020070470000054A116800BF044A19
:100330001268521A8242FAD30022014B1A607047A7
:10034000000000200848006800F0010058B107488C
:10035000406980F48070054948610348006840F0B6
:100360000100014908607047140401400010004872
:100370000848006800F0020050B1074800683238B1
:10038000054908600348006840F002000149086020
:10039000704700001404014008000020084800686D
:1003A00000F0040050B10748006832300549086089
:1003B0000348006840F004000149086070470000ED
:1003C00014040140080000203348006840F48070A5
:1003D0003149086000BF3048006800F480600028A0
:1003E000F9D02D48806820F003002B49886008462A
:1003F000806840F00100886000BF2748806800F0F6
:100400000C000028F9D02448C06C40F002002249BA
:10041000C8640846C06C40F01000C8640846C06C50
:1004200040F00100C8641D48006820F030001B49FE
:1004300008600846006840F010000860184800682E
:1004400020F44030164908600846006840F48030C7
:1004500008604FF09040006840F6FF4188434FF03D
:10046000904108600846C06840F6FF4188434FF05D
:100470009041C8600846C06840F6AA0108434FF0A2
:100480009041C86005481430006840F004000349FA
:10049000143108607047000000100240000400485A
:1004A0000010004810B5062000F0A2F8072000F068
:1004B0009FF8082000F09CF8092000F099F82A48DD
:1004C000006E40F00100284908662848806820F046
:1004D000070026498860084680688860084680686A
:1004E00020F0700088600846806888600846806850
:1004F00020F4E0608860084680688860084680686C
:1005000020F4E040886008468068886018480068E9
:1005100040F00100164908600846006840F00200FB
:1005200008600846006840F004000860084600685B
:1005300040F0080008600E480838006840F00100EC
:100540000B49083908600846006840F0020008605E
:100550000846006840F0040008600846006840F063
:100560000800086010BD00000010024000000140BB
:100570000804014002480068401C014908607047B7
:100580000000002010B500204FF0E021086140F28B
:10059000E730486100208861401E0121002804DB0B
:1005A0000A07130E104A135406E00A07140E0F4AE6
:1005B00000F00F031B1FD45400BF4FF0FF3000F0BA
:1005C00017F84FF0E020006940F002004FF0E02102
:1005D00008610846006920F00400086108460069C7
:1005E00040F00100086110BD00E400E018ED00E0FB
:1005F00000280DDB00BF00BF00F01F020121914069
:100600004209920002F1E022C2F8001100BF00BFCF
:1006100070470000FFF7D8FEFFF744FFFFF7B2FF77
:1006200013E00A48006840F00400084908600848E0
:100630000068FFF779FE0548006820F004000349D0
:10064000086003480068FFF76FFEEAE714040048FB
:10065000080000204FF04070E1EE100A70470000E3
:1006600080060008000000200C000000C401000803
:100670008C0600080C00002064150000E001000852
:0C0680000000000001000000E803000082
:040000050800018965
:00000001FF
